:020000040800F2
:1000000000000820E5050008594000085B40000892
:100010005D4000085F4000086140000800000000EB
:1000200000000000000000000000000071AC0008AB
:10003000634000080000000011AD000875AD000825
:1000400035060008350600083506000835060008A4
:100050003506000835060008350600083506000894
:100060003506000835060008350600083506000884
:100070003506000835060008350600083506000874
:100080003506000835060008350600083506000864
:100090003506000835060008350600083506000854
:1000A0003506000835060008350600083506000844
:1000B0003506000835060008350600083506000834
:1000C0003506000835060008350600083506000824
:1000D0003506000835060008350600083506000814
:1000E0003506000835060008350600083506000804
:1000F00035060008350600083506000835060008F4
:1001000035060008350600083506000835060008E3
:100110003506000835060008654000083506000869
:10012000714000087D4000083506000835060008CB
:1001300035060008350600083506000835060008B3
:1001400035060008350600083506000835060008A3
:100150003506000835060008350600083506000893
:100160003506000835060008350600083506000883
:1001700035060008350600083506000800000000B6
:100180003506000835060008350600083506000863
:100190003506000835060008350600083506000853
:1001A0008940000835060008B140000835060008FF
:1001B000350600083506000835060008BD40000871
:1001C0003506000835060008C94000083506000855
:1001D0003506000835060008350600083506000813
:1001E0003506000835060008350600083506000803
:0801F000D540000835060008A7
:1002000010B5054C237833B9044B13B10448AFF350
:1002100000800123237010BD5097002000000000D3
:100220000C06020808B5034B1BB103490348AFF3A2
:10023000008008BD00000000549700200C06020852
:1002400001F0FF01102A2BDB10F0070F08D010F887
:10025000013B013A8B422DD010F0070F42B3F6D18B
:10026000F0B441EA012141EA014122F007047FF0A4
:1002700000070023F0E80256083C85EA010586EAFB
:10028000010685FA47F5A3FA87F586FA47F6A5FA37
:1002900087F68EB9EED1F0BC01F0FF0102F0070243
:1002A00032B110F8013B013A83EA010313B1F8D1EE
:1002B0000020704701387047002D06BF35460338CF
:1002C000073815F0010F07D1013015F4807F02BF08
:1002D000013015F4C03F0130F0BC0138704700BF59
:1002E00053B94AB9002908BF00281CBF4FF0FF319D
:1002F0004FF0FF3000F074B9ADF1080C6DE904CE99
:1003000000F006F8DDF804E0DDE9022304B07047F0
:100310002DE9F047089D04468E46002B4DD18A42B8
:10032000944669D9B2FA82F252B101FA02F3C2F1EB
:10033000200120FA01F10CFA02FC41EA030E94407C
:100340004FEA1C48210CBEFBF8F61FFA8CF708FB9D
:1003500016E341EA034306FB07F199420AD91CEB75
:10036000030306F1FF3080F01F81994240F21C81A7
:10037000023E63445B1AA4B2B3FBF8F008FB1033EF
:1003800044EA034400FB07F7A7420AD91CEB040424
:1003900000F1FF3380F00A81A74240F207816444F4
:1003A000023840EA0640E41B00261DB1D440002379
:1003B000C5E900433146BDE8F0878B4209D9002DDD
:1003C00000F0EF800026C5E9000130463146BDE867
:1003D000F087B3FA83F6002E4AD18B4202D38242D1
:1003E00000F2F980841A61EB030301209E46002D80
:1003F000E0D0C5E9004EDDE702B9FFDEB2FA82F2D5
:10040000002A40F09280A1EB0C014FEA1C471FFA32
:100410008CFE0126200CB1FBF7F307FB131140EA19
:1004200001410EFB03F0884208D91CEB010103F1E6
:10043000FF3802D2884200F2CB804346091AA4B2A8
:10044000B1FBF7F007FB101144EA01440EFB00FE7C
:10045000A64508D91CEB040400F1FF3102D2A645E1
:1004600000F2BB800846A4EB0E0440EA03409CE780
:10047000C6F12007B34022FA07FC4CEA030C20FA2D
:1004800007F401FA06F31C43F9404FEA1C4900FA4D
:1004900006F3B1FBF9F8200C1FFA8CFE09FB1811CA
:1004A00040EA014108FB0EF0884202FA06F20BD93D
:1004B0001CEB010108F1FF3A80F08880884240F28D
:1004C0008580A8F102086144091AA4B2B1FBF9F0D1
:1004D00009FB101144EA014100FB0EFE8E4508D9CC
:1004E0001CEB010100F1FF346CD28E456AD9023851
:1004F000614440EA0840A0FB0294A1EB0E01A14236
:10050000C846A64656D353D05DB1B3EB080261EBA3
:100510000E0101FA07F722FA06F3F1401F43C5E97D
:10052000007100263146BDE8F087C2F12003D840B3
:100530000CFA02FC21FA03F3914001434FEA1C47F5
:100540001FFA8CFEB3FBF7F007FB10360B0C43EAE7
:10055000064300FB0EF69E4204FA02F408D91CEB97
:10056000030300F1FF382FD29E422DD90238634495
:100570009B1B89B2B3FBF7F607FB163341EA034135
:1005800006FB0EF38B4208D91CEB010106F1FF3884
:1005900016D28B4214D9023E6144C91A46EA00467B
:1005A00038E72E46284605E70646E3E61846F8E60D
:1005B0004B45A9D2B9EB020864EB0C0E0138A3E756
:1005C0004646EAE7204694E74046D1E7D0467BE737
:1005D000023B614432E7304609E76444023842E7AF
:1005E000704700BFDFF834D0002103E00C4B5B58AC
:1005F000435004310B480C4B42189A42F6D30B4A35
:1006000002E0002342F8043B094B9A42F9D305F07B
:100610009FFD1EF081FF02F0D7FC7047000008200C
:1006200044420208000000205001002050970020A2
:10063000B84B0220FEE7704701F07EBC01F0ECBC35
:10064000174B1A6B42F0010210B51A6386B01B6B90
:1006500003F001030093009B59B901230391114852
:10066000CDE90131022301A9049306F05FFD06B034
:1006700010BD0129FBD100240223019101A90948E1
:10068000CDE903434FF48813029306F04FFD224651
:100690000F21062005F0CAFD062005F0F9FDE6E76A
:1006A0000038024000000240002108B50846FFF76C
:1006B000C7FF08BD0121024808B506F0BDFE08BD10
:1006C0000000024008B50020FFF7F4FF08BD4068B5
:1006D00070474160704700004FF0E022D2F8FC3DC7
:1006E00043F08073C2F8FC3D054B064AD3F8B01FB7
:1006F0000A43C3F8B02F1A6842F001021A6070472B
:10070000001000E055CEACC5511A01EB5301B1FB0E
:10071000F3F07047014B5868704700BF001000E0CD
:10072000704710B504460C211EF07DFE204610BD1A
:10073000036810B51B69044631B19847A268636825
:100740009B1A1844606010BD9847A060FBE7704793
:100750007047000008B5FFF7A7FF024B00221A60A0
:1007600008BD00BF6C97002070B50D46FFF7AAFFCB
:100770000B4AC4B293785678117813F00100D37005
:100780009670517014700AD016F0010007D011F065
:10079000010004D0E30756BF01200020287070BD7F
:1007A0006C97002010B5044604211EF03CFE204644
:1007B00010BD704710B5044604211EF034FE2046DB
:1007C00010BD70477FB501238DF817204FF47A7262
:1007D000CDE901320DF1170200920A4601460648A2
:1007E00007F039F820B1044807F01CF802F0CAFB02
:1007F00007B05DF804FB00BFF4EF00207FB50023D5
:100800000A464FF47A718DF817300123CDE9013192
:100810000DF1170100910146064807F0D3F820B109
:10082000044806F0FFFF02F0ADFB9DF8170007B08B
:100830005DF804FBF4EF00201FB54FF47A740092CA
:100840000A4601460748CDE90134012307F0BAF80A
:10085000044620B1034806F0E5FF02F093FBA0B286
:1008600004B010BDF4EF0020F8B5134D0646134C4C
:100870000F462B68207898476B6854209847C0B281
:10088000112809D06B68702098477023C0B223707C
:10089000112803D00320F8BD54232370084BBE4217
:1008A00034BF01260C2620781E70AB68984720784C
:1008B000EB6898470020EEE7380000207097002092
:1008C0007197002008B54FF4F0714FF44870FFF7AE
:1008D000CBFF074B10B901221A7008BD1B78002B03
:1008E000FBD1044B6A21044A04481EF0CBFD00BF33
:1008F00072970020A8060208BB060208E506020857
:100900002DE9F04F354A0746DFF8E0A085B01078B2
:10091000DAF810309847387000285AD0304E07F176
:100920000209304D0DF10C0B02AC4FF000083B7882
:1009300043454ED929485A462146DAF81430007802
:1009400008F101089847284BB446AE461B78043698
:100950000435190741BF2288BBF80010ABF800200E
:1009600021809A0741BF2288C2F547720332228054
:100970005B0756F8042C48BFBBF8003034F8020B74
:1009800042BFC3F5EF730133ABF8003093B290422E
:100990003BF8021B8CBFC31A1B1A9BB2019355F87C
:1009A000043C9AB29942019B8CBF8A1A521A92B2A5
:1009B0001A44052AC8BF46F8040CDCF80030C8BF4A
:1009C00045F8041C29F8023BDEF80030A9F8023093
:1009D000ADE7002005B0BDE8F08F00BF70970020A4
:1009E000749700207C970020719700203800002029
:1009F0007FB50B4B0E4615461C785CB101A8FFF77E
:100A00007FFF9DF8043043B1BDF806303360BDF878
:100A10000A302B60204604B070BD1C46FAE700BFC8
:100A200072970020032823D8DFE800F0020B121A87
:100A3000104B40211A68B2FA82F252090E4806F0B1
:100A400001BD0C4B80215A68B2FA82F25209F5E7D7
:100A5000084B022109489A68B2FA82F25209EEE77D
:100A6000044B40210648DA68B2FA82F25209E6E7FE
:100A7000704700BF84970020000802400024024015
:100A800000140240032823D8DFE800F0020B121AFA
:100A9000104B40211A68003A18BF01220E4806F098
:100AA000D1BC0C4B80215A68003A18BF0122F5E7EF
:100AB000084B022109489A68003A18BF0122EEE764
:100AC000044B40210648DA68003A18BF0122E6E7E5
:100AD000704700BF849700200008024000240240B5
:100AE0000014024003280FD8DFE800F00206080BCC
:100AF0004021064806F0ABBC8021FAE702210448F9
:100B0000F8E740210348F5E7704700BF00080240BE
:100B1000002402400014024008B5032813D8DFE87F
:100B200000F0020A0C0F4021084806F085FC431E25
:100B30005842584108BD8021F6E702210448F4E7F5
:100B400040210448F1E70020F1E700BF000802401F
:100B5000002402400014024070B5084D0024012614
:100B6000E0B2FFF7D9FF18B12B68012B18BF2E6038
:100B700001340435052CF3D170BD00BF84970020EB
:100B8000012380F8741080F875307047002070479A
:100B900041640039024B18BF01211970704700BF32
:100BA0001349022000207047836B0BB10846184799
:100BB00070474FF6FF707047406803689B6918479D
:100BC000014B1868704700BF9497002070470000E1
:100BD000F0B40023104CC4F88430BFF34F8FD4F826
:100BE000803043F6E076C3F3C905C3F34E335B01AF
:100BF00003EA060C2A464CEA8277013AC4F874727A
:100C0000F9D2203B13F1200FF2D1BFF34F8FBFF386
:100C10006F8FF0BC01F0A2BA00ED00E008B501F062
:100C200057FA024B0422DA6008BD00BF00E100E081
:100C300010B5044601F0A6FB94F84B3013B1024BFB
:100C400001221A7010BD00BF1400002001F049BA43
:100C500010B504460DF03AFA23682046D3F8AC30BC
:100C6000BDE8104018470CF099BC10B504467C2133
:100C70001EF0D9FB204610BD024B00221A700CF06A
:100C8000C9BC00BF1400002038B50446FFF764FF5C
:100C9000084D204601F03CFA0023284684F84A30EB
:100CA000FFF71AFD0123256184F86C30024B636164
:100CB00038BD00BF9C970020A89700200368044619
:100CC00007B5D3F880309847236820469B6F984734
:100CD00000F0FAFE236820461B6F98470021292365
:100CE00015220548009106F09AF900F0EDFE236800
:100CF00020461B6F9847F8E7D8EF002008B501F0B1
:100D0000DFF9002207215A2005F090FA002207217E
:100D10006220BDE8084005F089BA90F877301BB131
:100D2000406803681B6818471846704790F83410ED
:100D30000D4B10B590F874401A788C4209D03AB92E
:100D40000A490B4A08881488108001220C801A7006
:100D500010BD002AFCD0064A0449148808880C807B
:100D600010800022F3E700BF0C4902200A4902204C
:100D70000849022008B5094B1B888B4203D8084B51
:100D80001B88934205D9074B9E21074A07481EF04E
:100D900079FB074B1980074B1A8008BD08490220D0
:100DA0000A4902204C070208AF070208F2070208AE
:100DB0000E4902201049022008B501F015FB044B32
:100DC0000422C3F88C20BFF34F8FBFF36F8F08BD91
:100DD00000E100E070B50D4619460B4B1D6035B9BA
:100DE0000A4B40F2D2210A4A0A481EF04BFBC0E9E6
:100DF0000F52003A084B18BF01221A700368BDE871
:100E00007040D3F88C3018479497002037080208B8
:100E10006F080208F207020812490220C0E9011215
:100E2000C3604FF480720023C0E912231E4A038579
:100E300080F82A30C3620386036680F86C3003674B
:100E4000C0E919234FF0807270B542670122BDF8E6
:100E50001050BDF814602035C0E90433C0E90633F2
:100E6000C0E90833C0E90E33C0E91033C0E91433D8
:100E7000C0E9163380F87820ADB20C4AB542106054
:100E80000B4A15800B4A158028BF00250A4A38BF37
:100E900001251680094A80F834501680084A1370DC
:100EA000084B036070BD00BF01000001144902201F
:100EB000084902200E4902200A4902201049022056
:100EC0000C490220C808020805F08CB9012807B5B2
:100ED0000AD84B781522094800930B78002106F0B8
:100EE0009EF803B05DF804FB019139220B5C0021F0
:100EF00000930346014806F0A3F8F2E7D8EF00207C
:100F000037B502230A4A15250A4C13700021557083
:100F10002046019244220092392206F091F80021E5
:100F200035232A462046009106F079F803B030BDFB
:100F3000AC970020D8EF002007B50190FFF7E0FF45
:100F40000F4B022201981B68C3F810240122C3F83A
:100F50001024D3F8082442F00102C3F80824D3F87F
:100F6000082442F00202C3F80824064B1A68536BA7
:100F700043F00303536303B05DF804EB01F0B0B832
:100F8000D8EF002098F00020074B07B503EB800056
:100F90002A2339220021009304230190034806F0FC
:100FA0004FF803B05DF804FB04000020D8EF0020E8
:100FB00070B5154D04460020FFF734FD2A6892F8FD
:100FC0006630013382F8663000F072FD0F4B2868FE
:100FD0001A781B7880F84A2023B10D4D2B7803F046
:100FE000FF0623B10020BDE87040FFF74BBD0DF0B8
:100FF0006DF8084B30461E60FFF7C6FF204605F02F
:10100000FEFF01232B7070BD144902201400002044
:10101000AE97002098970020334B1A68013270B5C4
:10102000032A1A60314B0546314C1968314B2EDCCE
:10103000D4F8040420F00800C4F804044FF4C87085
:1010400000FB02111046C3F8AC100CBFE823C82304
:10105000284902331B0443F4F1730B61264B4B61A7
:10106000A3F5F073C1F88830244BC1F8B0300123E8
:101070004B62FFF789FF1E4A2846D2F8043443F03A
:101080000803BDE87040C2F8043405F0B8BFD4F8D6
:101090000424002022F00802C4F80424184AC3F8EB
:1010A000AC101A6102F101125A61164AC3F8882085
:1010B000124AC3F8B02001225A62FFF765FFD4F844
:1010C0000434002043F00803C4F80434FFF7DAFCCA
:1010D0000D4B00221A700D4B186820B10368BDE853
:1010E00070401B6A184770BD9897002094970020A5
:1010F000006C014000680140E301CA0093018006D2
:10110000E201CA000300CA00AE9700201449022081
:10111000014608B5034B186801B101210CF0F0FF3E
:10112000012008BD14490220054B002205485A60E1
:101130009A60054A1A60054B0360FFF70BBB00BFBE
:101140009C970020A89700206C06020894060208CD
:101150004069704790F840007047036B23B9C06A3C
:10116000003818BF01207047012070478068704721
:101170007047043010B50C460FC884E80F0010BD4E
:101180007047000008B5034A4FF4E871024B03486A
:101190001EF078F998090208FF300208F3090208E6
:1011A00010B5044644211EF03EF9204610BD000053
:1011B00038B500250F4B04460360C56380F84050E6
:1011C000C0E90555C0E90755C0E90955C0E90B5507
:1011D000C0E90D55C0E90355C0E9015501F0FCFC1B
:1011E0002A462946012009F00DFA034B18602046D3
:1011F00038BD00BF7C0C0208F497002020B40D46D7
:1012000011461A46036B3BB1C36B406BED1A284481
:101210005DF8045B1EF0F0BDC06AF8E7036B10B523
:1012200073B1C36B426BC91A5318525C98785C78DF
:101230000004DB7840EA0420104340EA036010BD5C
:10124000C36A5858FBE7036B43B1C36BC91A436BBE
:101250005A18585C527840EA02207047C36A585ABC
:101260007047000070B50446006B0D461646D8B1B5
:10127000A36B934208D209230D4AAE210D4884F88E
:1012800040300D4B1EF0FEF80368DB689847206B7A
:101290003246616B03681B69984710B90D2384F8C7
:1012A0004030606BE56370BDE06A0844FBE700BF57
:1012B0005E0A0208F30902084B0A02082DE9F84306
:1012C000436904462BB9224BF421224A22481EF0DE
:1012D000D9F808228169FFF7C5FFA169204643F2CA
:1012E0003007043146F26436FFF798FF0546A169DE
:1012F000A36A0D4405F108029A4222D263690935B6
:101300000822204625F001010133A1616361FFF746
:10131000A9FFD4F8188020464146FFF794FF814684
:1013200008F104012046FFF779FFB9450546DED1F3
:1013300008F102012046FFF786FFB042D7D1012015
:1013400004E0012300206361236AA361BDE8F88300
:10135000A00A0208E90A0208F30902080129036841
:1013600038BF0121DB6A70B50D4604469847A84294
:1013700004D223682046DB6A984705466B1EE6695F
:101380001022204606EB031606F10801FFF76AFF5C
:1013900006F110012046FFF741FF236A043B034496
:1013A000C4E9055370BD00002DE9F3410021044656
:1013B0004822816180F84010FFF754FFA769042399
:1013C000644A39462046FFF719FF48B10323624AB1
:1013D0004FF49E7184F84030604B61481EF052F823
:1013E00007F1080104235F4A2046A161FFF706FFC9
:1013F00038B10423584A4FF4A27184F840305A4B54
:10140000EBE707F10C010423584A2046A161FFF7DE
:10141000F5FE064638B105234F4A40F24B1184F8D9
:101420004030534BD9E707F110012046FFF7F6FE95
:10143000054620B94F4B40F25111474ACDE707F11D
:10144000140804234C4A20464146FFF7D7FE0028E3
:101450004BD0062384F840300423484A07F1180192
:101460002046FFF7CBFE002841D0072384F8403008
:101470004544434F0C2220462946FFF7F3FE05F171
:10148000080604233A4620463146FFF7B7FE94F893
:10149000403000284AD0002B4AD1A36A291DAB4214
:1014A0004AD805F10C03291D2046A3610191FFF7DD
:1014B000B5FE3044019960622046FFF7AFFE064456
:1014C000042220463146FFF7CDFE04232D4A314643
:1014D0002046FFF793FE002839D10123E6616361BE
:1014E000A369236202B0BDE8F0810126B4E7002EB3
:1014F000BED007F120012046FFF790FE4FF47A732B
:1015000007F13001B0FBF3F060602046FFF786FE84
:1015100007F14001A0602046FFF780FE07F144017B
:10152000E0602046FFF77AFE2061A1E7002BB8D0EB
:101530000A2384F84030D5E72046FFF76FFE0830D5
:101540000C22054420462946FFF78CFE97E70B2323
:10155000EFE700BF1C0B02083A0B0208210B020840
:10156000F3090208670B02086C0B0208840B0208DF
:10157000890B02089F0B0208AB0B0208B00B020894
:10158000B50B0208BA0B0208C0E90A210022026367
:10159000FFF70ABF10B5002304460846E3620B6854
:1015A00021639B689847A0622046BDE81040FFF782
:1015B000FBBE000037B5124C4FF4C0752360002409
:1015C000104B1C60104B1C60104B1C60104B1C60BF
:1015D000104B1960104B1A60104A114BD2681C60F6
:1015E0006A43104B1C709C601C735C6100924FF44A
:1015F00080325B6806F036FE204603B030BD00BF87
:10160000B0970020D8970020C0970020C4970020F2
:10161000B8970020B4970020BC970020DC970020EA
:10162000D09700201800002008B54B680846012B11
:1016300019D1CB681A071E4A1EBF23F00F031033BF
:10164000CB608B6819071B491EBF23F00F031033B3
:10165000836001F05DFA48B3174B40F23221174A1C
:1016600017481DF00FFF022B17D1CB681A0703D0C4
:1016700023F00F031033C36083685A071EBF23F0A3
:101680000703083383600A4A0A490BF04FFC68B12C
:10169000094B4FF41571094AE2E7002BF3D1CB68EF
:1016A0005907E9D023F007030833E4E708BD00BF7A
:1016B000D4970020F0970020BF0B0208D00B02083F
:1016C000F30902080B4B1A680A4430B41A600A4B3B
:1016D0001B689A420CD2094C9A1A2568B2F5803FD1
:1016E000294428BF4FF48032216030BC06F021BE6F
:1016F00030BC7047B8970020BC970020B4970020FA
:10170000F8B5174D01270C21164C2B680646594396
:101710003B44BB4204EB0100675488BF0023826056
:101720000C222B602B685343E35C33B1022130461B
:1017300006F0CCFD0C4B01221A602A680C210B4BE1
:10174000304601FB02444FF4C072DB6861685A43C3
:1017500006F0F2FD064B1868BDE8F84008F0E2BF5D
:10176000C497002018000020D8970020DC970020A4
:10177000F497002010B5044607F06FF9204607F0F3
:101780006FF9FEE7014B01221A607047CC970020E9
:101790002DE9FF41384D0C26384C2B687343E35C30
:1017A000012B49D1364A5369DB031ED50023C2F809
:1017B0008430BFF34F8FD2F8803043F6E076C3F326
:1017C000C900C3F34E335B0103EA060C01464CEA41
:1017D00081770139C2F87472F9D2203B13F1200FDE
:1017E000F2D1BFF34F8FBFF36F8F0C26254F2868C0
:1017F0000DEB06033A6806FB004023490093234B98
:101800000968D3F8008083684068C0472A683B684D
:101810005643013218440023012A04EB0601A35564
:101820008B6098BF134638602B60194B3A681B6871
:101830009A420FD1012018E016490A68012A17D1EF
:10184000154A12687243A25C134311D10B60022146
:1018500006F0A8FF0B4B1A680D4B1B689A4209D182
:101860000E4B1868003818BF012004B0BDE8F081A5
:101870000220FAE70020F8E7C097002018000020B7
:1018800000ED00E0D0970020B0970020F0970020F6
:10189000D4970020D8970020C4970020CC97002030
:1018A00038B56AB363B3174C02252561C568006972
:1018B00015F00F0F00F00F0018BF25F00F05C0F155
:1018C000100018BF1035A06025604FF4C8650E48A1
:1018D000656025682D09E560FFF76CFE0A4D0B4C2D
:1018E0002846FFF755FF20602368022B05D1084BDF
:1018F0004FF0FF31186808F0DBFE2368012BEFD1B1
:1019000038BD00BFDC97002040F00020C8970020C1
:10191000F49700202DE9FF479946436904460F4696
:1019200090462BB92A4BC0212A4A2B481DF0AAFD0C
:1019300008228169FFF796FCA669204606F1080A8D
:10194000311DFFF76BFCA36A00EB0A0205469A42C1
:1019500031D231462046FFF776FC43F230039842FD
:101960001DD1B11C2046FFF76EFC46F2643398424D
:1019700015D1A5B12A4651462046C4F818A0FFF754
:1019800071FC0C9B01462A462046CDF80080CDE92B
:1019900001933B46FFF784FF636901336361A369E9
:1019A0002B448DB1A361A369626A013323F0010363
:1019B0009342A3610AD10120236A6061A36180F090
:1019C000010004B0BDE8F0870833EBE70020F6E73C
:1019D000A00A0208180C0208F309020873B50446AD
:1019E000816915460822FFF73DFCA6692046311D96
:1019F000FFF714FC06F10801024601902046FFF7AC
:101A000031FC01466DB12B46074C084D019A074841
:101A1000FFF7D0FD2846FFF7BBFE20602368002BB0
:101A2000F8D0012002B070BDC897002040F000201F
:101A30000121002208B5084608F0E4FD0A4B1860B1
:101A400028B90A4B28210A4A0A481DF01BFD00222A
:101A50000421012008F09CFE074B186018B9074BC1
:101A60002C21034AF0E708BDFC970020B80C0208BF
:101A7000010D0208300D0208F89700207E0D0208C3
:101A8000024B4FF0FF31186808F012BEFC9700209F
:101A9000014B186808F046BEFC970020024B00215D
:101AA000186808F005BE00BFFC970020FFF7F0BFE4
:101AB0000023034803491A46006808F0AFBE00BF80
:101AC000F89700203000002013B50023074C01A92F
:101AD0001A46206808F0E4FE4FF0FF33002201A907
:101AE000206808F0DDFE02B010BD00BFF8970020AE
:101AF00003685B6C18470120704703689B6A1847AE
:101B00000D4B82B01A6B42F400021A631A6B02F496
:101B100000020192019A1A6942F400021A611A69DC
:101B200022F400021A61054B054A9A614FF0806267
:101B3000044B9A6002B0704700380240C0EE0020AB
:101B4000891B000800E100E040F2EF307047000020
:101B5000054B4FF080620360044BC3F88820BFF34D
:101B60004F8FBFF36F8F70471C0F020800E100E03A
:101B700010B504464FF45A61FFF7EAFF20461DF006
:101B800052FC204610BD0000024B1B6858680368D9
:101B90005B6918471449022070B504460A4B0C30A3
:101BA00000262546602260602672667245F8203B5A
:101BB00029460CF0E1FB04F55A63EE602435AB4294
:101BC000FBD1204670BD00BF1C0F020808B50B29D1
:101BD0000BD8DFE801F01206100A0A0A0A08080802
:101BE0000808012008BD0520FCE7054B6621054AD1
:101BF00005481DF047FC0020F4E70220F2E700BF93
:101C0000C00D0208DB0D0208250E020808B50A29DE
:101C100009D8DFE801F010060E08080808060606D5
:101C20000600012008BD054B8721054A05481DF027
:101C300029FC0020F6E70220F4E700BFC00D0208EF
:101C4000710E0208250E02082DE9F8434F7F0C465D
:101C500081463946FFF7BAFF94F81E80054648468C
:101C60004146FFF7B3FF414606464846FFF7CEFF21
:101C7000A18A628B424B521A1A649A61228B521AC1
:101C80001A61E28A586342EA014220695A64626832
:101C9000D863DA60216894F81CC080294FEA0C628E
:101CA00026D010D8202945EA020462D0402960D00D
:101CB00004295ED02A43324B474542F40032DA61B0
:101CC0005BD0304A40E0B1F5807F07D0B1F5007FAE
:101CD000F0D142F4003242F0090203E042F4003253
:101CE00042F00A02DA61E2681A625E6258612AE032
:101CF000A4682A43211D42F40032D962DA612278B5
:101D00005E62586142B1012A21D01F4B40F211118D
:101D10001E4A1F481DF0B6FBDA690120618822F4D3
:101D20007F42013922F0100242EA0122DA61144BAB
:101D3000DA6942F02002DA61DA699206FCD41022F4
:101D40009A600028BDD0134A1A60BDE8F883628803
:101D5000BCF1FF00D96902F1FF3418BF012021F462
:101D60007F4222F0100242EA042242F01002DA61BD
:101D7000DDE744F40034DC61B7E740F20122E3E739
:101D800000B0024001020100BC0E0208D60E02089B
:101D9000250E02080102020070B50C46897FFFF78C
:101DA00035FF174BA68AE18A628B41EA0641256915
:101DB000921B58635964DD631A642668E168082E33
:101DC0000DD19A611A6158620E4A207F42EA006280
:101DD000DA610D4A19625D61DD601A6070BD002232
:101DE000D86148091A610A0A00F4FC60C1F3C40111
:101DF00002F4784202430A439A63044AEDE700BFC3
:101E000000B00240090001000102020001020300CB
:101E1000012070470C2070470C2303FB01000830A1
:101E200070470C2303FB0100083070470120704706
:101E300040F28450704740F2845303FB01000830A5
:101E4000704740F2845303FB0100083070470120C3
:101E500070471020704700EB01100830704700EB0E
:101E6000011008307047084602F024BB034B10B540
:101E7000044603600BF0E1F8204610BDD40F0208C1
:101E800010B50446FFF7F2FF142120461DF0CBFAEF
:101E9000204610BD034B10B5044603600BF0CDF88F
:101EA000204610BDA00F020810B50446FFF7F2FF50
:101EB00040F28C5120461DF0B6FA204610BD0000BD
:101EC000034B10B5044603600BF0B7F8204610BD75
:101ED0006C0F020810B50446FFF7F2FF18212046E8
:101EE0001DF0A1FA204610BD084B10B50446036052
:101EF00000F5B760FFF7BAFF04F12C00FFF7CAFF47
:101F000004F11400FFF7DCFF204610BD08100208A2
:101F100008B50248FFF7E8FF08BD00BF049800209D
:101F200010B50446FFF7E0FF4FF4E56120461DF0D1
:101F30007AFA204610BD00002DE9F34102F044F981
:101F40000024054602F044F923460146224628466D
:101F5000009411F071FC254B254A2046254D1A604E
:101F600003F05CFC244811F0CFFB2B78BFF35B8FB0
:101F7000DB0735D428461DF058FA88B31F4C204B98
:101F800004F5BA6604F1140004F12C0804F5B767EF
:101F900023606060C4F80880E76026610BF04EF8AB
:101FA000184B404663610BF049F8174B3846E36223
:101FB0000BF044F8154B04F2CC50C4F8B83503F0DC
:101FC000F5FD224604F2CC51304603F09DFC30462C
:101FD00002F070FA0E481DF073FA28461DF031FA2F
:101FE0000C4802B0BDE8F041FEF74EBE7049022039
:101FF0004CAD002000980020340000200498002000
:10200000081002086C0F0208A00F0208D40F020883
:10201000111F0008D0AC00200148FEF74FBE00BFE2
:10202000D0AC002013B50C490C4B0D4C0846236076
:10203000FFF7B2FD0B4A104614F00AFD4FF4487347
:102040004FF4F07204490848CDE900322346054AAE
:10205000FEF7E4FE02B010BD309F00203C070208EE
:102060002C9F002050AD0020D0AC00200148FFF78D
:102070006FBD00BF309F00201049002370B5C1F82C
:102080008430BFF34F8FD1F8803043F6E074C3F350
:10209000C900C3F34E335B0103EA0406024646EA75
:1020A0008275013AC1F87452F9D2203B13F1200F26
:1020B000F2D1BFF34F8FBFF36F8F70BD00ED00E023
:1020C000024B902283F85A23704700BF00E100E0E2
:1020D000024B4FF080629A60704700BF00E100E061
:1020E00070477047034B5B69DB0301D5FFF7C4BF43
:1020F000704700BF00ED00E00163C0E90D217047AB
:10210000704700EB8100114640680368DB681847A0
:1021100038B504460BF097FA23685D6E0EF0D8FBD5
:1021200001462046A847236807492046D3F888502F
:1021300000231A46A847054B054A5A60054A1A6308
:102140009A63054A5A6338BD00B80BC00CAE002034
:10215000C8AD0020000000C000B80B0008B50BF0AF
:1021600023FA044B5B69DB0303D5BDE80840FFF7A6
:1021700083BF08BD00ED00E00BF071BB38B504462D
:102180000D46406C4FF0FF3108F0E2F9606C08F04A
:102190000FFA2421002301FB054585F8283094F827
:1021A00028300BB9236BA36338BD10B50446482112
:1021B0001DF039F9204610BD08B531B1044B4FF47C
:1021C000B871044A04481DF05DF990F8290008BD73
:1021D0001410020828100208B211020810B531B11B
:1021E000064B4FF4B571064A06481DF04BF940689E
:1021F00011460368BDE810401B6B18471410020815
:10220000F5110208B211020808B529B1034B792172
:10221000034A04481DF036F9C06808BD14100208CE
:10222000A3130208B211020810B5044629B1194BD4
:10223000A221194A19481DF025F9052A15D8DFE809
:1022400002F0031115171C22406803681B699847A8
:1022500058B1012384F8293084F82C300023C4E9D4
:10226000043302E0002380F8293010BD0362F5E753
:102270000362012380F82A30F0E7002380F8293038
:1022800001230362F1E7003B18BF012380F82D30E2
:10229000EBE700BF1410020858150208B21102083B
:1022A00010B50C4611461A462CB1064B9021064A31
:1022B00006481DF0E7F8C46040680368BDE81040B8
:1022C0009B681847141002082C170208B211020864
:1022D00008B529B1054B8221054A06481DF0D2F800
:1022E000C0E90411C0E9063208BD00BF141002089D
:1022F00007190208B211020890F83D3010B50446E3
:1023000053B14FF0FF31406C08F022F9002384F8FC
:102310003D30012384F83E3010BD000010B5044666
:10232000104629B1134BD021134A14481DF0AAF8C6
:1023300094F8293033B1124B1B6893F86710636926
:102340000B44636194F82B300BB9012010BDA368D6
:10235000036303685B699847002394F82C0084F8B2
:102360002B300028F1D194F82D30002BEED184F8D9
:102370002900EBE714100208C31A0208B211020880
:102380001449022010B5174C0BF050F994F829307D
:1023900013B994F82A30ABB1E169D4E9053253435B
:1023A00022694A4393420DD394F83C0038B19B1AFA
:1023B000B3FBF1F2994298BF02F1FF32626201234E
:1023C00084F82E300123206C84F83D3008F0AAF9FF
:1023D00094F83E302BB1606C08F0EAF8002384F8E2
:1023E0003E3010BD0CAE0020044B4FF08062C3F8AD
:1023F0008820BFF34F8FBFF36F8F704700E100E07D
:1024000090F8283070B5DBB90122856BC360826219
:102410004FF480720361828505F53B22436102F52A
:1024200000628361C3610362436280F82E30D0E9A9
:102430000C463444A2420AD90B4B52210B4A03E00A
:102440000B4B40F2C5110B4A0B481DF01BF8826381
:102450004FF4487285601846CA864FF4F07281F8CE
:1024600034300A870B6370BD1B1E0208561E02081B
:10247000641C0208941C0208B21102082DE9F743FB
:10248000044601264FF4C8674FF0FF31206C08F076
:102490000FF94FF0FF31606C08F05AF894F82E30C5
:1024A00043B36568D4F820802B6884F82B60B8F1BA
:1024B000000F23D05B6A41462846984700232362D9
:1024C0002B684FF4487200972846D3F814804FF4D5
:1024D000F073A168C047236984F82C00013323619D
:1024E000F0B12B6828469B6A98470138E0600023CA
:1024F00084F82E30606C08F05BF8C5E7626A002A49
:10250000DED02846D3E909939847616A01442846FA
:10251000C8472369626AC4F8248013442361CFE763
:10252000E660E4E7014808B5FFF7A8FF0CAE00201D
:1025300038B514480025FEF73BFE134C134B2A46D2
:102540002946012023604FF48073A563A387A385E8
:1025500084F83E5084F82E50C4E90C55C4E9105557
:10256000C4E90155C4E90355C4E90555C4E9075553
:10257000C4E9095508F046F82064284607F0A6FF8C
:10258000606438BDC8AD00200CAE002004200208F5
:102590002DE9F04F8DB007924FF4C072DDF81C802A
:1025A00001900B91B3FBF2F306936C4B5A6A9B6A52
:1025B00005920022DDE906100144414506D80AB122
:1025C000664A936206980DB0BDE8F08F4FEA081393
:1025D000059A059908F101084FF0000BB3FBF2F2E0
:1025E00001FB12334FF4C8415B0001FB023302933D
:1025F000019B03F5807C9946029B594A934200F265
:10260000998003F5C8650B9BCDF80C901D440CF127
:10261000080309930CF1FF33039F00260493A5F5EB
:10262000C8630893089B02374E48334417F802ECFE
:102630000A93049B13F8012F04934B4B53F8221079
:10264000049B93F8403050F82340484850F823301A
:10265000474850F822201344464A1444104604EBDD
:102660000E0200EB23430144089892F800214FEA40
:10267000D20A03EB0E028E4492F800219EF800E18C
:102680009208520142EACA2242EADE02825317F855
:1026900001EC0A9804EB0E0292F800A103EB0E0283
:1026A0008E4492F800214FEADA0A9208520142EA77
:1026B000CA229EF800A142EADA02428097F806E0B8
:1026C00004EB0E0292F800A103EB0E028E4492F886
:1026D00000214FEADA0A9208520142EACA229EF821
:1026E00000A142EADA02AA53FA79134414440A44D4
:1026F00093F8003194F800419B08E4085B0143EA39
:10270000C42392F80041AA19043643EAD403102ED8
:10271000538087D1039B0CF1040C10354033039395
:10272000099B63457FF476AF029B09F1100903F51D
:10273000486302930BF1020BBBF1100F07D1019B11
:10274000012203F5C07301934FF4C86332E7BBF174
:10275000080F04BF019B03F180094DE7D4DA002084
:10276000FFB70B0054C6002054BA002054C200200A
:1027700054BE00203C2002082DE9F04F1B0A8DB00A
:1027800005934F4B06925A6ADDF818E002929A6A56
:102790001B690A9103920793DDE9053213447345DF
:1027A00003D805980DB0BDE8F08F4FEA0E12029BDA
:1027B0000EF1010E00F180078246B2FBF3F1039B9C
:1027C00003FB01F4029B03FB11235B0003EBC40337
:1027D000009308230493079B009A934269D90A9BAC
:1027E000D04603EB020907F1080308937B1E00247F
:1027F000019308F101030B9309EB840318F814C04B
:102800000993019B13F8012F01932E4B53F822508B
:10281000019B93F840102C4B53F821602B4B53F83D
:1028200021102B4B53F8222011442A4A13461644F8
:1028300003EB214106EB0C021D440B9B92F800B107
:1028400001EB0C02AC4492F800214FEADB0B92083A
:10285000520142EACB229CF800B142EADB0229F89D
:10286000242013F814200134099B11441644154404
:10287000042C91F8001196F800614FEA91014FEA9B
:10288000D6064FEA411141EAC62195F8006141EAB6
:10289000D6015980B0D10437089B09F1100908F11D
:1028A0004008BB42A2D1009A0AF1080A039B1A44CD
:1028B0000092049B013B04938DD100F580706BE77F
:1028C000D4DA002054BA002054C6002054C200209C
:1028D00054BE00203C2002082DE9F04F9246C02251
:1028E00089B054460791B3FBF2F3354A0493516A19
:1028F0000091916A126901910592049B03EB0A020F
:10290000A24203D8184609B0BDE8F08FE100009A52
:1029100001348446B1FBF2F5019A02FB05F6009AF8
:1029200002FB151208215200039102EBC60200F1CE
:102930004006059991423DD9079906F1FF3E8D1851
:102940000CF1FF31029105F110010691029F1EF872
:10295000018F17F8011F9EF840901A4B02971A4FEB
:1029600019441A4B57F829700F4497F800B153F8DF
:102970002870174B4FEADB0B0F4453F82990154B87
:1029800097F8007153F82880FF08069BC84447EA6F
:10299000CB2701EB284898F800B14FEA9B0B47EA98
:1029A0004B1725F8027B9D42D0D1019B08360CF1D4
:1029B000080C1A44039B013B0393BAD1C0309CE737
:1029C000D4DA00203C20020854C6002054BA00206B
:1029D00054C2002054BE00202DE9F04F85B00446BB
:1029E0009809029102EB93131A490393D1E90989DB
:1029F00009690191039B934202D805B0BDE8F08FAD
:102A0000D100A44601320827B1FBF8F309FB03F516
:102A100008FB13135B0003EBC5030199994214D91A
:102A20000299E246194401F1100B1AF8016BF508FE
:102A3000B6084FEAC52E4EEA46162E4321F8026B21
:102A40005945F2D10CF1080C4B44013FE5D140341B
:102A5000D0E700BFD4DA00202DE9F04F85B005465D
:102A6000FF27180A029102EB132328490393D1E9A7
:102A7000099A09690091039B934202D805B0BDE809
:102A8000F08FD300AE4601324FF0080CB3FBF9F1E2
:102A90000AFB01F409FB1131490001EBC401009B61
:102AA0008B422CD9029B74465E1806F110030193E9
:102AB00094F8C080013414F8013C13FB08F3B3FB15
:102AC000F7F34FEAE30B94F83F3013FB08F3B3FB43
:102AD000F7F39B105B0143EACB2394F87FB01BFB19
:102AE00008FBBBFBF7FB43EADB0B019B1FFA8BFBED
:102AF00026F802BB9E42DBD10EF1080E5144BCF118
:102B0000010CCCD105F58075B5E700BFD4DA002003
:102B1000F0B5C4688568066805FB04F7284B406873
:102B2000102E4FEA47071E609C60DD601F615860F1
:102B30003CD1012822D12348086014F00F0118BFAE
:102B4000C1F1100159611021D96119625969D8691F
:102B50002144596261009962B4FBF0F100FB114419
:102B600004B101311C6AB5FBF4F004FB105505B14A
:102B7000013041430020D9621160F0BD02280BD121
:102B80001148086014F00F0118BFC1F1100159611C
:102B90001021D9610821D8E70C48086014F007011A
:102BA00001D0C1F1080159610821CDE70EB90848EB
:102BB000F3E7302E01D10748EFE70120DDE700BF42
:102BC000D4DA00209125000879270008D9280008C8
:102BD000D9290008592A00082DE9F04FDFF850C222
:102BE0000023DFF8508244F68B4B7E4F49F2456A52
:102BF0007D4E41F62F597D4D7D4C7E487E490BFB25
:102C000003F24EF62F3E02F50042121448F8042B50
:102C10000AFB03F202F5004212144CF8042B09FBE4
:102C200003F202F50042121447F8042B734A5A4388
:102C300002F50042121446F8042B714A5A4301333C
:102C400002F50042B3F5807F4FEA224245F8042B9B
:102C500043F34F0244F8042B6A4A02FB03E249F2B1
:102C6000D04E4FEA224240F8042B674A02FB03E2AF
:102C70004FEA224241F8042BC1D1644C0022D30018
:102C800025460021072940F2A680072A8CBF03F1C0
:102C9000780003F138000131013325F8020B1029C7
:102CA000F0D101322034102AE9D10020DFF888E188
:102CB000DFF88881DFF88891DFF888A144080025D3
:102CC000C300E4001FFA83FCA4B24201C5F34F0322
:102CD0004F4F013519196344102D89B29BB201F58C
:102CE000807603F1800B03F1C003B6B222F80830FE
:102CF000D653484F22F80A6022F807B001F5A07BAE
:102D000001F5C07122F80EB022F8091002F102029A
:102D1000DCD101301028D1D10021DFF82C91DFF86F
:102D20002C810846DFF828E1DFF828C183B209EBDF
:102D3000010708EB01060EEB010503F108020CEB9D
:102D4000010492B203F1400A27F8023B26F802ABD5
:102D500003F1800A25F802AB03F1C00A013324F81D
:102D600002AB9BB29342EDD1083010314028DDD147
:102D7000294D0023294C2A482A49DFF8DCE0DFF8F6
:102D8000DCC0294F294E0EFB03F2A2F53202A2F558
:102D90007442121445F8042B0CFB03F2A2F56202F4
:102DA000A2F5A042121444F8042B07FB03F202F52B
:102DB000B60202F5D04240F8042B06FB03F20133C1
:102DC00002F53012B3F5807F02F5406241F8042B22
:102DD000D9D1BDE8F08F072A8CBF03F14000184617
:102DE00059E700BF54B6002094E6002054CA0020E2
:102DF00054AE002054CE002054B20020D1D4FFFFA6
:102E000030ABFFFFD194FFFF30EBFFFF94E40020D5
:102E100054D6002054D8002054C6002054BA0020B4
:102E200054C2002054BE00203049FFFFE8A7FFFF36
:102E300054D2002094EA002014DB002014DD00208E
:102E400094DF002094E1002014E4002054DA0020F4
:102E500014DF002094E30020E8660100A0C5010013
:102E60000149002009F018B91111000808B56420C3
:102E700007F012FBFBE7000000B54FF4407395B07C
:102E800041F2883217480C93062306A906930023C3
:102E9000CDE90D330F930B931393CDE9113306F066
:102EA00001F9E0B9022301224FF4800104900D489A
:102EB000CDE900331023CDE9023205236A46CDE97E
:102EC00005134FF0407306A90F9341F2883306F0C3
:102ED000E4F9003818BF012015B05DF804FB0120AB
:102EE000FAE700BF40F1002010B594B01022002195
:102EF000022409A81CF056FB1422002102A81CF091
:102F000051FB1E4B192107A81A6C42F080521A641B
:102F10001B6C03F080530093009B194B1A6842F41A
:102F200040421A6001221B6803F440430193019B55
:102F30004FF48033CDE907234FF48003CDE90D43EF
:102F40004FF4C873CDE90F130723CDE91144139350
:102F500006F034FA05F042FF0F2300200621CDE9E8
:102F600002344FF4A053CDE904034FF4805302A878
:102F7000069306F017FC14B010BD00BF00380240E5
:102F80000070004038B50D4A00250D4C0D4B204611
:102F90002562C4E900230123C4E90455C4E90253AE
:102FA000C4E9065504F0EDFB2946204604F0CDFDAA
:102FB00029462046BDE8384004F0EDBD00600040E1
:102FC000F4EF0020FFEAC0002DE98048BBB01022DA
:102FD000002101242CA81C261CF0E4FA032503F090
:102FE00079F94FF00050CD4B40F20117ADF8B040E9
:102FF000CDE92D03CA4B2CA82F9303F089F94FF08C
:1030000010438DF8B14000242CA82D938DF8B860A2
:103010008DF8BB40ADF8BE4003F07AF902232CA82E
:103020008DF8BB508DF8B1301923ADF8BE708DF816
:10303000B83003F06DF94FF040432CA88DF8B8601C
:1030400004262D938DF8B1508DF8BB40ADF8BE40ED
:1030500003F05EF917232CA88DF8B1608DF8B83015
:103060008DF8BB50ADF8BE7003F052F9304603F056
:103070003FF9BFF34F8FBFF36F8FAA4AC2F8504298
:10308000BFF34F8FBFF36F8F536943F40033536126
:10309000BFF34F8FBFF36F8FC2F88440BFF34F8FE2
:1030A000D2F8803043F6E074C3F3C900C3F34E3363
:1030B0005B0103EA0406014646EA81750139C2F85C
:1030C0006052F9D2203B13F1200FF2D1BFF34F8FA2
:1030D000536943F480335361BFF34F8FBFF36F8F56
:1030E00003F05CF80125FFF7FFFE142200212CA855
:1030F0001CF058FA8C4B4FF400418C481A6B4FF47B
:10310000004600244FF0030B42F010024FF002087B
:10311000874F4FF0040A1A634FF480491A6B02F08C
:1031200010020392039A1A6B42F002021A631A6B9E
:1031300002F002020492049A1A6B42F040021A63EF
:103140001A6B02F040020592059A1A6B42F00802CF
:103150001A631A6B02F008020692069A1A6B42F082
:1031600004021A631A6B02F004020792079A1A6BA0
:1031700042F480721A631A6B02F480720892089A01
:103180001A6B42F020021A631A6B02F020020992B5
:10319000099A1A6B42F400721A631A6B02F40072F5
:1031A0000A920A9A1A6B42F080021A6301221B6B80
:1031B00003F080030B930B9B04F044F90022C02121
:1031C0005C4804F03FF9002240215B4804F03AF9E2
:1031D00000220221554804F035F92CA95348CDE9C5
:1031E0002C65CDE92E5503F0A1FFC0232CA9514831
:1031F000CDE92C35CDE92E4B03F098FF40232CA9C7
:103200004D48CDE92C35CDE92E4B03F08FFF2CA98D
:103210004648CDE92C85CDE92E4B03F087FF474882
:10322000474B848003600562C0E9054403F09CF8C5
:10323000314622463D4804F005F9142002F0D2FF41
:1032400031462A46394804F0FDF80A2002F0CAFF48
:103250002422214615A80E941CF0A4F91822214618
:103260000FA84FF480761CF09DF9342221462CA83B
:103270001CF098F92C2221461EA81CF093F9314B22
:1032800064220CA93846C7E900340523C7E902A522
:10329000CDE90C2303F000FC15A938461D94CDE9B7
:1032A0001554CDE91744CDE91944CDE91B4403F089
:1032B0001DFE1C2121230F20CDE90F1319230FA977
:1032C000CDE911033846CDE9134403F0D2FD514650
:1032D000384603F0BDFD42F21071384603F010FF8E
:1032E0004FF48071384603F075FB4FF400734FF4D0
:1032F000806C4FF4805E4FF400324FF4002138466A
:10330000CDF8E080CDE92C634FF400630E4ECDE99B
:103310002EC34FF40053CDE930E317E01200000351
:103320000100010100ED00E00038024000240240ED
:10333000D8EF002000080240001402409CEE00205C
:1033400000300240006C014098F000204FF48033C0
:10335000CDE932934FF480234FF01009CDE93423A7
:103360004FF08073CDE936132CA903F03DFDC8233F
:103370001EA938462895CDE92039CDE91E44CDE96E
:10338000224ACDE92484CDE9264403F0BBFC214642
:10339000384603F0A6FC214634221EA81CF002F990
:1033A000CB4ACA204FF0CB0CB486C6F8208086F8F2
:1033B0003640C6E900244FF4F172C6E9090240F232
:1033C000E3123046C6E90BC2C6E90244C6E9044529
:1033D000C6E9065805F0CCFBFF214FF4806EC823E8
:1033E0004FF4F07230461E942992ADF8A8408DF843
:1033F000AA40CDE923140521CDE925E14FF0404154
:10340000CDE92128CDE9271322461EA9CDE91F3495
:1034100005F07AFC32683846936923F00103936122
:1034200003F0CAFD2946404602F046FC2823152237
:1034300021463846009403F0F2FD2CA93846369414
:103440004FF44077CDE92C44CDE92E44CDE930440A
:10345000CDE93244CDE9344403F0C6FC22464FF4B2
:103460004871304605F07EFC32689A4E4FF4006198
:10347000936930462B4393612022974BB462CDF879
:10348000B080C6E900344023C6E904234FF4C0737A
:10349000C6E906344FF48053C6E9081307232CA964
:1034A000CDE92D3ACDE92F38C6E9024ACDE9318B75
:1034B00006F0F2FC4FF6FF721EA930460F94CDE9DC
:1034C0001E59CDE9205406F007FD284602F08AFE79
:1034D0004FF6FF721EA93046CDE91E89CDE9205472
:1034E00006F0FAFC08234FF6FF721EA93046CDE91C
:1034F0002034CDE91EB906F0EFFC4FF40C734FF603
:10350000FF721EA90F9330460F9B20952193CDE9A2
:103510001EA906F0E1FC40F22A7130466F4E06F01B
:10352000FAFC43F2D2024FF0204330461A6003F512
:1035300080533462C6E900351923C6E90299C6E909
:103540000437C6E9064405F059FD3297662741F273
:1035500088322CA930462C97359431943994CDE992
:103560003344CDE9374405F09DFD002840F0B88094
:10357000992441F288322CA930462C9405F092FD12
:10358000002840F0AD804FF4807341F288322CA9BE
:10359000304632932C9705F085FD002840F0A0803E
:1035A00041F288322CA930462C9405F07BFD04466C
:1035B000002840F095804FF47A7002F013FE4FF42B
:1035C00080031EAA2CA923934FF480733046CDF8B4
:1035D0008090329305232C934FF08073359341F202
:1035E0008833CDE91E45CDE9215405F056FE00286B
:1035F00076D14FF48073319041F288322CA9329306
:1036000005232C934FF08073CDE93300CDE936507C
:10361000CDE938003046359305F044FD00285FD1F0
:1036200041F2883215A9304605F0D8FD002857D15F
:103630004FF480733590319041F2883232930623F3
:1036400039902CA92C93CDE93300CDE937003046D1
:1036500005F028FD002843D100232C4621954FF08A
:10366000807522934FF480031EAA2CA9239305236F
:103670003046CDF880902C9341F288333595CDE9D2
:103680001E8805F00AFE58BB4FF48073319041F25A
:1036900088322CA932939DF854302C9443F0400387
:1036A0003595CDE93300CDE93640CDE938003046D7
:1036B0008DF8543005F0F6FC90B941F2883215A926
:1036C000304605F032FD58B9282002F08BFD07E0A6
:1036D000006801408CF10020400100A040F1002072
:1036E0004FF4807341F288322CA9B84832933523C5
:1036F0002C930023CDE93333359331933993CDE9BE
:10370000373305F0CFFCE0B941234FF0400C4FF0C8
:10371000010E22901EAA2CA9AC48CDE91EC310238D
:10372000CDE9203E4FF4800323934FF4407332934E
:1037300005232C934FF04073359341F2883305F005
:10374000ACFDB7234FF440741E93002324942793B9
:1037500023932B93CDE92533CDE92933FFF78CFB58
:1037600018BB41F288321EA9984805F09BFCE0B9CD
:1037700005233190399015AA2C934FF04073159082
:103780002CA93593012332941693CDE918301023D8
:1037900017934FF48003CDE93300CDE937001A9336
:1037A00041F28833894805F078FD05234FF44076CF
:1037B0004FF0407401252C93002341F288322CA94C
:1037C0008248329635943193CDE93333CDE936537F
:1037D000CDE9383305F066FC00284FD141F288323C
:1037E0001EA97A4805F0FAFC002847D1152331902C
:1037F00041F288322CA932962C933594CDE93300CE
:10380000CDE93650CDE93800704805F04BFCA8BB37
:1038100041F288320DF179016C4805F0DFFC68BB9C
:10382000FFF72AFB50BB0223C02232962C95359419
:103830003190CDE93300CDE93630CDE9380092FA48
:10384000A2F203219DF87930B2FA82F25F4803F0C8
:103850003F0301FA02F22CA9134341F288328DF89A
:10386000793005F01FFC48B941F288321EA957484B
:1038700005F05BFC10B9282002F0B4FC05234FF4DE
:1038800040764FF0407401252C93002341F288329A
:103890002CA94E48329635943193CDE93333CDE996
:1038A0003653CDE9383305F0FDFB00284BD141F20A
:1038B00088321EA9454805F091FC002843D1152304
:1038C000319041F288322CA932962C933594CDE96F
:1038D0003300CDE93650CDE938003C4805F0E2FB35
:1038E00088BB41F288320DF17901384805F076FC49
:1038F00048BBFFF7C1FA30BB0223072232962C9552
:1039000035943190CDE93300CDE93630CDE938003A
:1039100092FAA2F206219DF87930B2FA82F22B488F
:1039200023F0070301FA02F22CA9134341F2883273
:103930008DF8793005F0B6FB28B941F288321EA91E
:10394000224805F0F2FB4FF440730024204D1EAADC
:103950003293EC232CA91D482C934FF440633994E7
:1039600033934FF440532F934FF04073CDE93443DA
:103970000A23CDE937443193CDE91E4405F0DDFC3F
:10398000144B2846C5E90E44C5E91044C5E9124464
:10399000C5E90034C5E9024402F0EAFE01212846E7
:1039A00002F0A8FFFFF7EEFAFCF745FE0A4B0521EF
:1039B00038201A6B42F480021A6322461B6B03F410
:1039C00080032C932C9B02F031FC07E040F1002097
:1039D000C0EE002000B0024000380240382002F063
:1039E00057FC22460521392002F020FC392002F044
:1039F0004FFC104B1048036004F082FAFCF71CFEE9
:103A000006F0BAFC0D4A21460D4806F0EFFC0D4BBE
:103A10000D4A214618600D4806F0E8FC0C4B0D4A93
:103A2000214618600C4806F0E1FC0C4B186006F0CB
:103A3000BDFCFEE70010055040F000208423020882
:103A40006D2E000898EE0020602302083D06000855
:103A500094EE0020A823020825250008C0F10020CC
:103A60000268034B9A4201D102F0AABB704700BF23
:103A700000100040704700000D4B82B00F216FF026
:103A800001001A6C42F080521A641A6C02F08052E3
:103A90000092009A5A6C42F480425A6400225B6C95
:103AA00003F480430193019B02B002F0BFBB00BF4F
:103AB00000380240026882B0084B9A420BD1D3F81A
:103AC000302803F5006342F480521A631B6B03F441
:103AD00080530193019B02B0704700BF0030024049
:103AE0000E4B07B502689A4215D1A3F5F0430521A4
:103AF0005A201A6B42F400021A6300221B6B03F473
:103B000000030193019B02F091FB5A2003B05DF882
:103B100004EB02F0BDBB03B05DF804FB00B0024053
:103B200010B588B004461422002103A81BF03AFD0A
:103B30002268154B9A4225D103F54C4303A913483B
:103B40005A6C42F000625A645A6C02F000620192B0
:103B5000019A1A6B42F400721A6304221B6B03F47D
:103B600000730293029B0223CDE903230D230793E5
:103B700003F0DCFA62200022052102F057FB6220EC
:103B800002F086FB08B010BD006C0140002402402A
:103B9000F0B5ADB004461422002103A81BF002FDCD
:103BA0009022002108A81BF0FDFC2268254B9A42B8
:103BB00046D14FF4003308A8089305F0C1FE08B1C0
:103BC000FFF758FF204C122701260325236B03A97A
:103BD0001E4843F002032363236B03F002030093A8
:103BE000009B236B43F008032363236B03F008035C
:103BF0000193019B8023CDE903370B23CDE90565B4
:103C0000079303F093FA4FF4805303A91048CDE9CA
:103C100003370423CDE90565079303F087FA236C86
:103C20005F200022052143F080732364236C03F09E
:103C300080730293029B02F0F9FA5F2002F028FBE6
:103C40002DB0F0BD0060004000380240000402408A
:103C5000000C0240026808B50B4B9A4212D10B4A85
:103C600080210B48136C23F08073136403F042FB34
:103C700008484FF4805103F03DFB5F20BDE8084049
:103C800002F014BB08BD00BF0060004000380240D5
:103C900000040240000C024037B5354B054602686F
:103CA0009A4262D1334B4FF48061334C04205A6BFB
:103CB0004FF4000CDFF8CCE042F002025A634022DD
:103CC0005B6B03F002030193019B4FF09053C4E937
:103CD00000E30023C4E902234FF480522362C4E9C5
:103CE00004124FF48042C4E906230323C4E9090304
:103CF0004FF400132046C4E90BC302F0A9FB08B13E
:103D0000FFF7B8FE2C634FF090531C4A4FF48061CC
:103D1000A56304201A4C4FF4000CC4E900234FF4AF
:103D200080520023C4E904124FF480422362C4E9A4
:103D30000233C4E906230323C4E909034FF4001343
:103D40002046C4E90BC302F083FB08B1FFF792FEE3
:103D50006C63002205216C20A56302F067FA6C20D9
:103D600003B0BDE8304002F093BA03B030BD00BFED
:103D7000001005500038024018EF0020286402406F
:103D800078EF00201064024010B5A6B004469022DF
:103D9000002102A81BF006FC2268144B9A4222D193
:103DA0000823072002934FF4C07307930223CDE941
:103DB0000830012302A80C9305F0C2FD08B1FFF7FB
:103DC00059FE0B4B582003215A6C42F080625A6412
:103DD00000225B6C03F080630193019B02F026FAE2
:103DE000582002F055FA26B010BD00BF006801400F
:103DF00000380240142200212DE9F0418AB0044627
:103E00000DEB02001BF0CEFB22683A4B9A426ED1BA
:103E1000394B0225032409269A694FF0040805A9A5
:103E2000364842F0020200279A619A6922F00202A3
:103E30009A619A6B42F002029A639A6B02F0020254
:103E40000092009A1A6B42F010021A631A6B02F089
:103E500010020192019A1A6B42F002021A631A6B65
:103E600002F002020292029A1A6B42F004021A63F2
:103E70001A6B02F004020392039A1A6B42F00802D2
:103E80001A631B6B03F008030493049BCDE90585BB
:103E9000CDE9084603F04AF9402305A91848CDE9C1
:103EA00005350123CDE907340A23099303F03EF9D0
:103EB0004FF4C06305A913480996CDE90535CDE94E
:103EC000077403F033F905A90D480996CDE9058576
:103ED000CDE9077403F02AF94FF4005305A90A4805
:103EE0000996CDE90535CDE9077403F01FF90AB04D
:103EF000BDE8F081001000A0003802400010024030
:103F00000004024000080240000C0240F0B500230B
:103F100087B003932A4B1E68002E4FD1012202273F
:103F200003250C241A6001A9264B27489A6B42F0FE
:103F300001029A639B6B03F001030093009B4FF611
:103F40008373CDE90454CDE9013703F0EFF848F26B
:103F5000331301A91D480594CDE90137CDE9036567
:103F600003F0E4F84CF2037301A919480594CDE974
:103F70000137CDE9036503F0D9F840F2FF6301A9E9
:103F800014480594CDE90137CDE9036503F0CEF877
:103F90004FF63F0301A910480594CDE90137CDE95B
:103FA000036503F0C3F84FF62C7301A90B48059481
:103FB000CDE90137CDE9036503F0B8F807B0F0BDEE
:103FC000C4F10020003802400010024000180240F6
:103FD000000C02400020024000140240001C02407D
:103FE00010B5014688B00022362002F01FF93620B5
:103FF00002F04EF9144B01A903A81A6C134C42F0BD
:1040000010021A641B6C03F010030293029B05F06C
:1040100079FC05F067FC0E4B4000236040F2E7336B
:10402000E3600C4BB0FBF3F00138002360602046E6
:104030002361A36006F0E0F820B9204605F084FF74
:1040400008B010BD0120FBE700380240C8F1002095
:104050000010004040420F007047FEE7FEE7FEE719
:10406000FEE77047014805F0B1BF00BFC8F100206E
:10407000014802F0BDBA00BF18EF0020014802F06D
:10408000B7BA00BF78EF002008B502F0A5F8054ADE
:10409000054913681B1A0B6010600448BDE808400E
:1040A00004F0D5BD18F2002014F2002098F0002092
:1040B000014802F095BB00BFC0EE0020014803F0AC
:1040C0003DBD00BFF4EF0020014802F098BD00BFE5
:1040D000D8EF0020014804F063BC00BF40F000208E
:1040E0000120704708B51BF0FFF9162303604FF05D
:1040F000FF3008BD08B51BF0F7F916230360FEE793
:1041000070B50D4614460E46731B9C4201DC2046DA
:1041100070BDAFF3008006F8010BF5E770B50D46F2
:1041200014460E46731B9C4201DC204670BD16F8F7
:10413000010BAFF30080F5E74FF0FF3070474FF40D
:10414000005300204B6070470120704700207047EB
:104150000A4A116808B5034609B90949116010688F
:10416000694603448B4206D91BF0BEF90C23036059
:104170004FF0FF3008BD1360FCE700BF1CF20020C9
:10418000B84B0220704710B5044604211BF04BF9D0
:10419000204610BD08B5032913D8DFE801F0020658
:1041A0000A0E01F087FB006808BD01F083FB406840
:1041B000FAE701F07FFB8068F6E701F07BFBC0685F
:1041C000F2E70020F0E7000000487047E023020813
:1041D0000B20704713B5002451B1036801AA019464
:1041E0008DF803409C680DF10303A04702B010BD99
:1041F0000846FBE740897047808970478088704790
:1042000083798088184480B27047C07900F07F00BD
:104210007047C079C0097047704710B5044608213F
:104220001BF001F9204610BD7047704700F59673EA
:104230000868496803C3704770477047416070471A
:1042400070470000064BC0F84401C0F84831002315
:10425000C0F84C3100F5A073C0F83C31704700BF86
:10426000054300080123037270477047704710B47C
:1042700041680346C2689B68541001EB6200D20794
:1042800048BF0A595DF8044B48BFD35818474368E4
:104290002BB183682BB9C06800F001007047184645
:1042A00070470120704710B504460C211BF0BBF885
:1042B000204610BD10B5044610211BF0B4F820466E
:1042C00010BD10B504464FF4AC711BF0ACF820469D
:1042D00010BD08B50CF0FCFABDE808400CF0DABEE1
:1042E00010B50446D0F83C0158B10368DB68984724
:1042F00038B1D4F83C0103689B6898470023C4F8A0
:104300003C3110BD2DE9F14FD0E9545A0746A86859
:1043100003681B6A984740F28353984205D8454B7F
:10432000A321454A45481BF0ADF8686803681B6A3D
:1043300098470F2803D8424BA4213F4AF2E7E86888
:1043400003681B6A98470B2803D83E4BA5213A4ABD
:10435000E8E7DFF8F8900CF0BBFA0CF0FAFAD9F8BD
:10436000000010B10368DB689847D9F8000010B16D
:1043700003681B689847DFF8D880D8F8000010B1B0
:1043800003685B699847D7F8380110B103685B6828
:104390009847D8F8000010B103681B689847D7F811
:1043A000380110B103689B689847E86800214FF016
:1043B000000B03685B6A9847234B0446C0F804B0BF
:1043C0000360594680F808B0A86803685B6A98479C
:1043D000064601F091FB6868594603685B6A984796
:1043E0000546314601F0A8FAC9F80040C7F838512F
:1043F000C8F80060E5B12B1DCAF8003030463368BC
:10440000C5F808A0DB68F56398472B6828461B6849
:104410009847214630460DF07DFE236820461B69F3
:104420009847236820465B6901B0BDE8F04F184704
:104430002B46E1E7CC2402085A2502085826020838
:104440009F260208422702085428020854490220E5
:1044500050490220F8B5044617460E460CF096FA6D
:10446000104B00251C6029460F4BC4E954760F4EB3
:10447000236030680E4BC4E95255C4E950350368D7
:10448000C4E94E559B689847284601F0C7F9336840
:1044900093F876200AB1D86C00B9986814F0BFF888
:1044A0002046F8BD6049022008280208144902206D
:1044B000F0270208064BC0F84401C0F84831002339
:1044C000C0F84C3100F5A073C0F83C31704700BF14
:1044D00005430008006A7047406A704770478B8840
:1044E0008069DB0A0A6850F823001044704710B551
:1044F000C2B1137BB3B1547BD27A240204F4E064DA
:104500001443C26998B202EB840213888B4202D131
:1045100092F9020010BD05D80138043280B200289B
:10452000F3D1F7E70020F5E710B5044628211AF08B
:104530007AFF204610BD000030B589B00446BDF8B2
:1045400050500695BDF84C5005959DF84050049587
:104550009DF83C5003959DF8385002959DF83450D5
:1045600001959DF8305000950DF034FA064B204629
:104570002360119BA361129BE361159B2362169B31
:10458000636209B030BD00BF782802080020704780
:1045900081807047C18070470181704741817047B9
:1045A0007047704770477047704710B4C4880368FD
:1045B000121B84885B6D091B12B25DF8044B09B2B3
:1045C00018474FF6FF7383814FF0FF330362136880
:1045D000C36110607047806A7047704770477047CA
:1045E0007047704790F825201AB190F8242002B146
:1045F0001860704770477047704730B585B00368E2
:10460000044601816D460146D3F884303C34284687
:10461000984795E8070084E8070005B030BD30B53D
:1046200085B00368044641816D460146D3F8843065
:104630003C342846984795E8070084E8070005B011
:1046400030BD0022028042808280C280704780F8A4
:1046500036107047036870B504461B6B15469847C3
:104660002368204629465B6EBDE87040184700204D
:104670007047806C7047704770477047704770474D
:104680007047704770477047704790F82C304BB1B7
:1046900000F16C021268C2653BB100F174031B6843
:1046A0000366704700F16802F4E700F17003F6E773
:1046B00090F82C3023B100F184031B6883667047A7
:1046C00000F18003F9E77047704770477047704703
:1046D000704730B444680346C2689B68551004EBC9
:1046E0006200D20748BF625930BC48BFD358184750
:1046F00043682BB183682BB9C06800F00100704794
:10470000184670470120704790F82D3080F86E30C1
:10471000704790F82D3080F8A43080F85A307047F8
:1047200090F82D3080F85A30704790F82D3080F88E
:104730009A3080F85C30704790F82D3080F85C300B
:10474000704790F82D3080F8D23080F8983080F89B
:104750006430704790F82D3080F8983080F86430DD
:10476000704790F82D3080F86430704701463C3037
:1047700091F82C3013B16A310AF03EBB6831FBE787
:1047800010B50446703094F82C303BB104F16E0142
:104790000AF032FB2046FFF7E9FF10BD04F16C017F
:1047A000F6E708B590F82C303BB100F1E8031B6840
:1047B000C0F8CC30FFF7E4FF08BD00F1E403F6E7F2
:1047C0000146343091F82C3013B162310AF014BB39
:1047D0006031FBE708B590F82C303BB100F1B00335
:1047E0001B68C0F89430FFF7EBFF08BD00F1AC0385
:1047F000F6E710B504467C3094F82C303BB104F158
:104800007A010AF0F9FA2046FFF73FFF10BD04F1E4
:104810007801F6E710B5044634211AF004FE20466C
:1048200010BD10B504466C211AF0FDFD204610BDE8
:1048300010B504469C211AF0F6FD204610BD10B5B7
:10484000044664211AF0EFFD204610BD10B5044661
:10485000EC211AF0E8FD204610BD10B50446B42145
:104860001AF0E1FD204610BD10B5044688211AF06B
:10487000DAFD204610BD10B504464C211AF0D3FDD8
:10488000204610BD10B5044678211AF0CCFD204614
:1048900010BD10B50446A8211AF0C5FD204610BD74
:1048A00010B5044610211AF0BEFD204610BD10B50B
:1048B000044640F284511AF0B6FD204610BD90F82F
:1048C000252012B103685B691847704710B504468C
:1048D000006B50B10368DB68984730B1206B21460C
:1048E0000368BDE810409B68184710BD90F82C3055
:1048F00010B504466BB1B0F93830B0F93A209A429D
:1049000008D10368D3F88830984700232387E38EC3
:10491000638710BD01330387FBE700F1C4029142B6
:1049200002D103689B6B184700F5D872914202D1FF
:1049300003685B6BF7E700F51972914202D10368D7
:104940001B6BF0E700F54372914202D10368DB6A0A
:10495000E9E77047036870B55E6B0446114B8DB292
:104960001B682BB9104B6C21104A11481AF08AFDB4
:104970001049828D0988914203D80F4B6D210B4A53
:10498000F3E713F812200D4B1B6853F8220003685D
:10499000DB6A9847281A334601B22046BDE87040CA
:1049A000184700BF64490220C82802080A290208E3
:1049B00045290208684902208C2902086C49022016
:1049C00000224FF0FF318260C0E900217047036888
:1049D00070B504461B6B1546984723682046294648
:1049E0005B6BBDE8704018470B882DE9F041A0F8DB
:1049F0006C30044613889046B0F90850A0F86E3029
:104A000010460EF02DFFB4F90A30074605EBD575B8
:104A100003EBD3734046C5F34F0507EBD777C3F3DA
:104A20004F060EF051FF00EBD070A5EB6707A6EB29
:104A3000600204F1700039B212B2FFF7C8FF2368B8
:104A40002046D3F88C30BDE8F04118470B882DE99B
:104A5000F041A0F87830044613889046B0F9085029
:104A6000A0F87A3010460EF0FBFEB4F90A30074683
:104A700005EBD57503EBD3734046C5F34F0507EB44
:104A8000D777C3F34F060EF01FFF00EBD070A5EBF6
:104A90006707A6EB600204F17C0039B212B2FFF79F
:104AA00096FF23682046D3F88C30BDE8F0411847C4
:104AB000036870B504469B6B1546984723682046EB
:104AC0002946DB6BBDE87040184738B504461D46E3
:104AD000FFF77DFFBDF9102029462046FFF7E8FFCC
:104AE00038BD37B50C46054608460EF0B9FE0190B4
:104AF00020460EF0E9FE019902462846FFF7D8FF4E
:104B000003B030BD0B88014610B5A0F868300446EC
:104B1000138821F86A3FFFF7E4FF23682046D3F8A3
:104B20008C30BDE8104018470B88014610B5A0F83E
:104B300060300446138821F8623FFFF7D2FF2368F4
:104B40002046D3F88C30BDE8104018470022C0E959
:104B50000122C0E90322C0E90522C0E907224FF47F
:104B600080728284014A0260704700BF102A0208E6
:104B700010B50446262200211AF014FD2046FFF746
:104B8000E5FF044B20462360FF2384F826300023F2
:104B9000A36210BD503C020838B504460D462622DB
:104BA00000211AF0FFFC2046FFF7D0FF064B2046FD
:104BB000294623602B88E384FF2384F828300AF0F9
:104BC0001BF9204638BD00BF203D0208094A4FF4BA
:104BD0007F4102600022818582620263C0E9012276
:104BE000C0E90322C0E90522C0E9072240F2011210
:104BF00082847047782A0208036880F82C10D3F862
:104C00008C30184738B50D460979044690F82C3099
:104C100081B983B123682046D3F8883098470023B0
:104C20002387A38E63870BF053FE2146BDE83840EF
:104C30000BF054BE63B1B1FA81F120464909FFF788
:104C4000DBFF236820465B6998472B79002BE1D076
:104C50000BF03EFE2146BDE838400BF064BE70B557
:104C60000D460979044690F82C6079B96EB9B1FA0D
:104C700081F120464909FFF7BFFF236820465B69A1
:104C8000984716B12B79012B03D070BD002EFCD0B4
:104C9000EDE723682046D3F88830BDE87040184718
:104CA00070B50D79044690F82C303DB93BB12368BE
:104CB0002046D3F88830BDE8704018475BB1B5FA9C
:104CC00085F120464909FFF797FF236820465B6975
:104CD0009847002DEBD070BD70B50D4690F834307C
:104CE000044690F82C102A79A2F1020CDCF100069F
:104CF00046EB0C06012A80F8346012D09BB981F093
:104D00000101FFF779FF236820465B6998472B79FB
:104D1000012B08D123682046D3F88830BDE87040C5
:104D20001847002BF6D070BD10B50446262200218E
:104D30001AF038FC2046FFF709FF0A4B4FF47F02B8
:104D400020462360084BA3624FF6FF73A385002320
:104D5000C4E90C324FF0FF322387E363C4E9102328
:104D600010BD00BFC03B0208C42402082DE9F04F6B
:104D7000044600254FF6FF7704F1C40A04F5807657
:104D800004F59A7804F5B07904F5197B2DED0E8BB6
:104D90008DB00DF013F82246E74BE56342F8403B37
:104DA000104608EE902AFFF7E3FE04F16C030AA90F
:104DB000ADF8287018460CEE903AFFF7EDFE04F1BE
:104DC00098030AA9ADF8287018460DEE103AFFF7BF
:104DD000E3FE5046FFF7FAFED84B0AA93046ADF87D
:104DE0002870C4E93E35D64BC4F8C430FFF7D4FE72
:104DF0002A4630462946A4F82C71A4F82E71FFF7F4
:104E0000E6FD3146504608F02BF9CE4B0AA9404644
:104E1000C4F8C430A4F83071A4F83271ADF8287029
:104E2000FFF7BAFE4146504608F01AF9C64B48460D
:104E300004F50578C4F8C430FFF776FF49465046BC
:104E4000C4E96A5508F00CF904F5D87334222946F0
:104E500008EE103A18461AF0A5FB18EE100AFFF7F4
:104E6000B5FEBA4B0AA9ADF82870C4F8B03104F504
:104E7000F2730DEE903A1846FFF78EFE2A46294649
:104E80001DEE900AA4F81072A4F81272FFF79FFDAD
:104E90001DEE901A18EE100A08F0E2F8AC4B4046EE
:104EA000C4F8B031FFF740FF414618EE100AC4E9DC
:104EB000975508F0D5F83422294658461AF072FB67
:104EC0005846FFF783FEA34BC4F8643204F52673FB
:104ED00018460EEE103AFFF74BFE9F4B2A46294626
:104EE000C4F898321EEE100AC4F8C452A4F8C8528E
:104EF000C4E9B355C4E9B555FFF769FD1EEE101AB4
:104F0000584608F0ADF8954B0AA9A4F8DC72C4F82D
:104F1000643204F53873A4F8DE721846ADF82870D0
:104F20000393FFF739FE039B584604F55177194662
:104F300008F096F804F54373184609EE103AFFF7A7
:104F400045FE874B384684F84053C4F80C33FFF7CE
:104F5000EBFE394619EE100AC4E9E35508F080F873
:104F600004F56573184609EE903AFFF7DDFE04F587
:104F7000777318460AEE103AFFF7D6FE04F2244380
:104F800018460AEE903AFFF7CFFE04F26C4318463B
:104F90000BEE103AFFF7C8FE04F2B44318460BEECE
:104FA000903AFFF7C1FE6F4BC4F8FC54C4F8B43418
:104FB00004F5A06318460CEE103AFFF7B5FE694BF6
:104FC0002A462946C4F8003518EE900A664BC4F804
:104FD0004855C4F87435654BC4F87845C4F87C3539
:104FE0004FF4F073C4F8805500934FF44873FFF703
:104FF0006CFD4FF07F432A462946A3661CEE900ABB
:10500000FFF7E5FC0AA91CEE900AADF8285009F05C
:10501000F3FE502240F225111DEE100AFFF7D7FCD7
:105020004FF005030AA91DEE100AADF8283009F06B
:10503000E3FE4FF003014FF012130AAA5046ADF8F9
:1050400024104FF00401C4F8F830ADF8281009A975
:10505000FFF758FD30462A462946FFF7B8FC4FF0C7
:10506000060101230AAA5046ADF8281009A9ADF897
:105070002430FFF7B9FC3E4B0AAE4FF00502C4F8EE
:10508000383148463B4B31463826ADF82C200A9340
:1050900009F0E6FC4846B4F9CE20B4F9CC10FFF78D
:1050A00007FDC8236FF01B0148460D220096FFF74D
:1050B0000CFDDFF8C890304A5046C4E96A92FFF709
:1050C00070FBC823B122322150460096FFF7FDFC49
:1050D00004F2745C0AA84FF00A0ECDF80CC009A9BE
:1050E000C4F8F4C04FF0080C024618EE100AADF8F0
:1050F00028E0ADF824C0FFF717FD2A4629461DEE2B
:10510000900AFFF764FC4FF006001A4B0AA9ADF8AD
:105110002C0040460A9309F0A3FC4046B4F9BA219A
:10512000B4F9B811FFF7C4FC64236FF001014046E5
:105130000C22009624E000BFBC3002081E000F00C5
:10514000A42B0208442C0208E82C02088C2D02082B
:105150002C2E0208CC2E0208B83C0208682F020848
:1051600008300208142B0208A43002081B4900086A
:1051700088001400C4240208099AE7FF464646FF47
:10518000FFF7A3FC954A18EE100AC4F85C92C4F825
:1051900060224FF00709FFF71DFB64234022232103
:1051A00018EE100A0096FFF790FC03992A46642334
:1051B0001EEE100AC4F8E01100962946FFF785FCA0
:1051C000DFF83C82864B4FF005015846A4F8C81220
:1051D000C4E9B38303F5602303F20143C4F8D43276
:1051E000804BC4F8D832D4F86432D3F88C30984766
:1051F0004FF002015846ADF82890ADF824100AA9E6
:105200000A4609A9FFF722FC774B3C22A521584604
:10521000C4F8E43200966423FFF757FC734B0399FC
:1052200038460A930B232426C4F894120AA9ADF831
:105230002C3009F015FC3846B4F91623B4F91413D0
:10524000FFF736FC9823294638462A460096FFF792
:105250003CFC624A19EE100AC4F88C83C4F890230F
:10526000FFF726FA9823292240F2251119EE100A99
:105270000096FFF72AFC039A04AE2D2119EE900A3E
:10528000C4F83C232B22594FFFF7A1FB19EE901ACB
:105290003046C4F8C483A4F8C85309F05FF904F594
:1052A000747396E8070083E807000AA919EE900ACC
:1052B0000A97ADF82C9009F0D3FB2B22AB211AEE04
:1052C000100ADFF84091FFF782FB1AEE101A304601
:1052D000C4F80C84A4F8105409F040F904F5836371
:1052E0004FF0080C96E8070083E807000AA91AEEB9
:1052F000100AADF82CC00A9709F0B2FB9C22672176
:105300001AEE900AFFF763FB1AEE901A3046C4F8C3
:105310005484A4F8585409F021F904F58C6396E8F4
:10532000070083E8070009230AA91AEE900A0A97E2
:10533000ADF82C3009F094FB142240F21B111BEE47
:10534000100AFFF744FB1BEE101A3046C4F89C8489
:10535000A4F8A05409F002F904F595634FF00A0E81
:1053600096E8070083E807000AA91BEE100AADF8CB
:105370002CE00A9709F074FB1423882287211BEE86
:10538000900A00938223FFF7A0FB4FF0FF331BEE40
:10539000901A3046C4F8E43404F24C57D4F8B434CC
:1053A000A4F8E854D3F88430984704F59E6396E84F
:1053B000070083E80700D9F800302BB90C4B6021B7
:1053C0000C4A0D481AF05EF8DFF83C80B8F800305F
:1053D000E3B90A4B6121074AF3E700BF099AE7FFE7
:1053E000403A28FF6D675FFF22001300C4240208C3
:1053F000C8280208CA290208452902088C2902087F
:10540000DEDEDEFF64490220684902204E4B294659
:10541000186800F03FFA4D4A03460A2138460EF05C
:1054200066F94FF00202C4F8FC740AA9484F1BEE5B
:10543000900AADF82C200A9709F012FB5D23702228
:105440004FF4B0711CEE100A00934FF4B373FFF7E2
:105450003CFB404B1CEE101A3046C4F83035D4F8F3
:105460000035A4F8345504F5AC65D3F8843098477A
:1054700004F23C5396E8070083E80700D9F80030AF
:10548000002B9BD0B8F80030032BA2D92E4B032160
:10549000186800F0FFF92D4A03460A2128460EF04D
:1054A00026F94FF00403C4F84855251D0AA91CEE3F
:1054B000100AADF82C300A9709F0D2FA18EE901ABB
:1054C000284607F0CDFD1CEE901A284607F0C8FDCF
:1054D0001DEE101A284607F0C3FD5146284607F076
:1054E000BFFD18EE101A284607F0BAFD59462846A7
:1054F00007F0B6FD19EE101A284607F0B1FD19EEB7
:10550000901A284607F0ACFD1AEE101A284607F04C
:10551000A7FD1AEE901A284607F0A2FD1BEE101AFE
:10552000284607F09DFD1BEE901A284607F098FDCF
:1055300028461CEE101A07F093FD20460DB0BDEC76
:105540000E8BBDE8F08F00BF70490220022A0208CE
:10555000C42402081414E3FF7047000030B5154D51
:105560008DB02C78BFF35B8F14F001041FD1284657
:1055700019F05BFFD8B1104B042210490693104B71
:10558000104805930123CDE9033302930323CDE9AA
:105590000944CDE90032CDE907440F234522FEF747
:1055A000CBFF094819F08CFF284619F04AFF05483F
:1055B0000DB030BD20F20020F84102080C420890E6
:1055C0000842020824F200205955000870470000E4
:1055D00030B5164D8DB02C78BFF35B8F14F00104FD
:1055E00020D1284619F021FFE0B13F2301221049C4
:1055F0000793104B10480693104B08940394CDE981
:1056000004430423CDE9013205230F2200931B2319
:10561000CDE90944FEF790FF094819F051FF2846EB
:1056200019F00FFF04480DB030BD00BF4CF2002050
:10563000D4450890FC41020850F200200C420208B8
:10564000CD5500087047000030B5164D8DB02C7850
:10565000BFF35B8F14F0010420D1284619F0E5FE5A
:10566000E0B1114B022211490693114B11480593E9
:105670000123CDE90323029304221123CDE9094438
:10568000CDE90032CDE9074450234222FEF754FF12
:10569000094819F015FF284619F0D3FE05480DB04A
:1056A00030BD00BF78F2002000420208A8460890F2
:1056B000104202087CF200204556000870470000A6
:1056C00030B5154D8DB02C78BFF35B8F14F001040D
:1056D0001ED1284619F0A9FED0B13F2301220F495F
:1056E00007930F4B0F4806930F4B089403940094B5
:1056F000CDE904430423CDE90944CDE90132142363
:10570000FEF71AFF094819F0DBFE284619F099FE4A
:1057100004480DB030BD00BFA4F20020444A0890F8
:1057200004420208A8F2002014420208BD560008F4
:1057300000207047002070470EB403B503AB002172
:1057400053F8042B01930BF075FF02B05DF804EBE6
:1057500003B070470CB407B504AB53F8042B0193A6
:105760000BF068FF03B05DF804EB02B07047000077
:10577000436C10B5044673B3038F2BB9184BC0218B
:10578000184A194819F07EFEC38E00EB43035B8C68
:105790000BB30DF0EFF9238F012B03D8134BC52169
:1057A000134AEEE7E28E40F63F10531C9BB2092BE2
:1057B000194688BFA3F10A0104EB4101498C8142DB
:1057C00009D10A2B04EB420228BF0023508C04EBC2
:1057D0004303588451842046BDE810400DF0CCB8F6
:1057E000F830020801310208AC310208F631020833
:1057F000043202080DF089B810B586B002AC84E816
:1058000006001A460AAB214605930193099B0093B3
:10581000089B0AF093FB06B010BD000038B518BB1A
:10582000124B13481B681349B3B11A689C681A4499
:105830001C4402605A681A440A600F4B00221A8006
:1058400000F038F8054600F033F80C4B1C600C4BA8
:105850001D600C4B188007E00B4B03600B4B0B607B
:105860000B4B1C68002CE8D138BD00BFD0F20020E3
:10587000D4F20020D8F20020DCF20020644902209B
:105880006C49022068490220884A0890544A0890CE
:10589000704B0890044B1B6853F82100034B1B68A6
:1058A00003EB4000704700BFD8F20020D4F2002084
:1058B0000D20704700487047E0F2002010B5074CFB
:1058C000FFF7C2FE2060FFF783FE6060FFF746FE31
:1058D000A060FFF7F5FEE06010BD00BFE0F2002021
:1058E000704710B504464FF4AC7119F09CFD20468A
:1058F00010BD10B50446D0F8540100F05AF9204606
:10590000BDE810400AF092BE10B50446FEF7A2FDB5
:10591000014B2046236010BDE03202087047043876
:105920007047704710B50446102119F07CFD2046E1
:1059300010BDA0F10400F5E70022C1608260044AB6
:1059400010B502F1080420320460426010BD00BFAF
:10595000243302087047704710B5044640F2845162
:1059600019F061FD204610BD036880F82D10D3F8B2
:10597000903018470368DB6F1847000038B500F512
:10598000A06504462846FFF7F5FF0DF09DFB322881
:1059900015DC431C0A4A0A2104F5AC600DF0A7FE91
:1059A000084A0A2104F24C500DF0A1FE28460BF0E3
:1059B00063FF04F2B440BDE838400BF05DBF38BD72
:1059C0004C3302084F33020873B500F5A066044655
:1059D0003046FFF7CFFF0DF077FB32283EDC451C49
:1059E0001F4A0A2104F5AC602B460DF080FE3046BC
:1059F0000BF042FF94F8F130642B0BD104F1C4009A
:105A0000FF210190FFF7B0FF0123019884F8E830EF
:105A10000BF032FF322D21D1002504F5D87064211E
:105A20000190FFF7A1FF2946019884F8D451FFF7B0
:105A3000E3F801980BF020FF04F519706421019040
:105A4000FFF792FF0198294684F88852FFF7D4F8AF
:105A5000019802B0BDE870400BF00EBF02B070BDFF
:105A60004C33020873B500F5A06604463046FFF7D4
:105A700081FF0DF029FB002839DB451E1D4A0A2154
:105A800004F5AC602B460DF032FE30460BF0F4FE10
:105A900094F8DD31642B16D104F5D8700126FF216E
:105AA0000190FFF761FF019884F8D4610BF0E4FEE8
:105AB00004F51970FF210190FFF756FF019884F853
:105AC00088620BF0D9FE002D11DC04F1C4006421C2
:105AD0000190FFF749FF0021019884F8E810FFF7D3
